{
  "contractName": "EthSwap",
  "abi": [
    {
      "inputs": [],
      "payable": false,
      "stateMutability": "nonpayable",
      "type": "constructor"
    },
    {
      "anonymous": false,
      "inputs": [
        {
          "indexed": false,
          "internalType": "address payable",
          "name": "owner",
          "type": "address"
        }
      ],
      "name": "ProductPurchased",
      "type": "event"
    },
    {
      "constant": true,
      "inputs": [],
      "name": "name",
      "outputs": [
        {
          "internalType": "string",
          "name": "",
          "type": "string"
        }
      ],
      "payable": false,
      "stateMutability": "view",
      "type": "function"
    },
    {
      "constant": false,
      "inputs": [],
      "name": "createTransaction",
      "outputs": [],
      "payable": true,
      "stateMutability": "payable",
      "type": "function"
    }
  ],
  "bytecode": "0x608060405234801561001057600080fd5b506040518060400160405280600a81526020017f47616d6573636861696e000000000000000000000000000000000000000000008152506000908051906020019061005c929190610062565b50610107565b828054600181600116156101000203166002900490600052602060002090601f016020900481019282601f106100a357805160ff19168380011785556100d1565b828001600101855582156100d1579182015b828111156100d05782518255916020019190600101906100b5565b5b5090506100de91906100e2565b5090565b61010491905b808211156101005760008160009055506001016100e8565b5090565b90565b6102a7806101166000396000f3fe6080604052600436106100295760003560e01c806306fdde031461002e57806397b54cc2146100be575b600080fd5b34801561003a57600080fd5b506100436100c8565b6040518080602001828103825283818151815260200191508051906020019080838360005b83811015610083578082015181840152602081019050610068565b50505050905090810190601f1680156100b05780820380516001836020036101000a031916815260200191505b509250505060405180910390f35b6100c6610166565b005b60008054600181600116156101000203166002900480601f01602080910402602001604051908101604052809291908181526020018280546001816001161561010002031660029004801561015e5780601f106101335761010080835404028352916020019161015e565b820191906000526020600020905b81548152906001019060200180831161014157829003601f168201915b505050505081565b600073f13a144ccaf9762378bee509257060c9c6aa7aa790506001341161018c57600080fd5b3373ffffffffffffffffffffffffffffffffffffffff168173ffffffffffffffffffffffffffffffffffffffff1614156101c557600080fd5b8073ffffffffffffffffffffffffffffffffffffffff166108fc349081150290604051600060405180830381858888f1935050505015801561020b573d6000803e3d6000fd5b507fbf4f0b30f6ce6185c15841a0dcfe60feecadaf348e61ecfc97464293076e48a481604051808273ffffffffffffffffffffffffffffffffffffffff1673ffffffffffffffffffffffffffffffffffffffff16815260200191505060405180910390a15056fea265627a7a72315820822ba025459a2d08465082a40ab4f1ecad570d8c40972381304b4067c9040a4064736f6c63430005100032",
  "source": "pragma solidity ^0.5.0;\r\n\r\ncontract EthSwap {\r\n    string public name;\r\n    \r\n    //CREATES CART BUNDLE FOR ETHEREUM PAYMENT\r\n\r\n    struct Product{\r\n        string name;//Bundle if many games\r\n        uint price;//Total Price\r\n        address owner;//UNIQUE ACCOUNT\r\n    }\r\n\r\n\r\n    event ProductPurchased(\r\n        address payable owner\r\n\r\n    );\r\n\r\n    constructor() public{\r\n        name =\"Gameschain\";\r\n    }\r\n\r\n    function createTransaction() public payable {\r\n        address payable  myAddress = 0xf13a144ccAf9762378bee509257060C9C6Aa7aa7;\r\n        require(msg.value>1);\r\n        require(myAddress != msg.sender);\r\n        address(myAddress).transfer(msg.value);\r\n        emit ProductPurchased( myAddress);\r\n    }\r\n\r\n\r\n}",
  "sourcePath": "C:\\Users\\Jairo Sierra\\OneDrive\\Documents\\AppVanguardia\\ProyectoFinal\\BlockChain_Project\\gamesbcv\\src\\contracts\\EthSwap.sol",
  "compiler": {
    "name": "solc",
    "version": "0.5.16+commit.9c3226ce.Emscripten.clang"
  },
  "schemaVersion": "3.0.23",
  "updatedAt": "2021-12-20T18:54:34.650Z",
  "devdoc": {
    "methods": {}
  },
  "userdoc": {
    "methods": {}
  }
}