{
  "contractName": "Gameschain",
  "abi": [
    {
      "constant": true,
      "inputs": [],
      "name": "name",
      "outputs": [
        {
          "internalType": "string",
          "name": "",
          "type": "string"
        }
      ],
      "payable": false,
      "stateMutability": "view",
      "type": "function"
    },
    {
      "constant": true,
      "inputs": [],
      "name": "productCount",
      "outputs": [
        {
          "internalType": "uint256",
          "name": "",
          "type": "uint256"
        }
      ],
      "payable": false,
      "stateMutability": "view",
      "type": "function"
    }
  ],
  "bytecode": "0x6080604052600060015534801561001557600080fd5b506101b5806100256000396000f3fe608060405234801561001057600080fd5b50600436106100365760003560e01c806306fdde031461003b578063e0f6ef87146100be575b600080fd5b6100436100dc565b6040518080602001828103825283818151815260200191508051906020019080838360005b83811015610083578082015181840152602081019050610068565b50505050905090810190601f1680156100b05780820380516001836020036101000a031916815260200191505b509250505060405180910390f35b6100c661017a565b6040518082815260200191505060405180910390f35b60008054600181600116156101000203166002900480601f0160208091040260200160405190810160405280929190818152602001828054600181600116156101000203166002900480156101725780601f1061014757610100808354040283529160200191610172565b820191906000526020600020905b81548152906001019060200180831161015557829003601f168201915b505050505081565b6001548156fea265627a7a723158201c01725ef48012fb36dfe275365cc6ba7a268175444a3e48ed18747dd28c414a64736f6c63430005100032",
  "source": "pragma solidity ^0.5.0;\r\n\r\ncontract Gameschain {\r\n    string public name;\r\n    uint public productCount = 0;\r\n\r\n}",
  "sourcePath": "C:\\Users\\erick\\Documents\\UNITEC\\A2021_Mod5_Per4_DesarrolloAplicacionesVanguardia\\Project\\BlockChain_Project\\gamesbcv\\src\\contracts\\EthSwap.sol",
  "compiler": {
    "name": "solc",
    "version": "0.5.16+commit.9c3226ce.Emscripten.clang"
  },
  "schemaVersion": "3.0.23",
  "updatedAt": "2021-11-25T20:01:46.901Z",
  "devdoc": {
    "methods": {}
  },
  "userdoc": {
    "methods": {}
  }
}